:100000000C945D000C9485000C9485000C94850084
:100010000C9485000C9485000C9485000C9485004C
:100020000C9485000C9485000C9485000C9485003C
:100030000C9485000C9485000C9485000C9485002C
:100040000C9439030C9485000C9407030C94E10282
:100050000C9485000C9485000C9485000C9485000C
:100060000C9485000C94850000000008000201003B
:100070000003040700000000000000000000000072
:10008000250028002B0000000000240027002A0083
:10009000040404040404040402020202020203032E
:1000A0000303030301020408102040800102040836
:1000B0001020010204081020830311241FBECFEF7B
:1000C000D8E0DEBFCDBF11E0A0E0B1E0EEEFFBE095
:1000D00002C005900D92A431B107D9F722E0A4E146
:1000E000B1E001C01D92A031B207E1F710E0CDE50B
:1000F000D0E004C02197FE010E94F205CC35D10763
:10010000C9F70E94E7030C94FD050C94000090E0F1
:10011000FC01EC55FF4F2491FC01E057FF4F849107
:10012000882399F090E0880F991FFC01EA57FF4F50
:10013000A591B491FC01E458FF4F859194918FB73C
:10014000F894EC91E22BEC938FBF0895CF92DF925D
:10015000EF92FF920F931F93CF93DF936C017A017D
:100160008B01C0E0D0E0CE15DF0589F0D8016D919C
:100170008D01D601ED91FC910190F081E02DC60139
:100180000995892B11F47E0102C02196ECCFC7019D
:10019000DF91CF911F910F91FF90EF90DF90CF9063
:1001A0000895089580E090E00895FC01538D448DFA
:1001B000252F30E0842F90E0821B930B541710F012
:1001C000CF96089501970895FC01918D828D98171F
:1001D00061F0828DDF01A80FB11D5D968C91928D2B
:1001E0009F5F9F73928F90E008958FEF9FEF089528
:1001F000FC01918D828D981731F0828DE80FF11DF1
:10020000858D90E008958FEF9FEF0895FC01918D0B
:10021000228D892F90E0805C9F4F821B91098F7304
:10022000992708958BE291E00E94060121E0892B35
:1002300009F420E0822F0895FC01848DDF01A80FCE
:10024000B11DA35ABF4F2C91848D90E001968F73FE
:100250009927848FA689B7892C93A089B1898C911D
:1002600080648C93938D848D981306C00288F389E3
:10027000E02D80818F7D80830895EF92FF920F9310
:100280001F93CF93DF93EC0181E0888F9B8D8C8D42
:10029000981305C0E889F989808185FD24C0F62E70
:1002A0000B8D10E00F5F1F4F0F731127E02E8C8D09
:1002B000E8120CC00FB607FCFACFE889F9898081F3
:1002C00085FFF5CFCE010E941C01F1CF8B8DFE0181
:1002D000E80FF11DE35AFF4FF0820B8FEA89FB898B
:1002E0008081806207C0EE89FF896083E889F9898F
:1002F00080818064808381E090E0DF91CF911F91C5
:100300000F91FF90EF900895CF93DF93EC01888DCC
:100310008823C9F0EA89FB89808185FD05C0A88909
:10032000B9898C9186FD0FC00FB607FCF5CF80818F
:1003300085FFF2CFA889B9898C9185FFEDCFCE01D9
:100340000E941C01E7CFDF91CF91089580E090E0FB
:10035000892B29F00E94120181110C94000008954C
:1003600090E0FC01E859FF4F3491FC01EC55FF4F40
:100370002491FC01E057FF4FE491EE2309F43BC0C8
:10038000332339F1333091F038F43130A9F0323081
:1003900001F584B58F7D12C0373091F03830A1F06F
:1003A0003430B9F4809180008F7D03C0809180004B
:1003B0008F77809380000DC084B58F7784BD09C08E
:1003C0008091B0008F7703C08091B0008F7D8093C3
:1003D000B000F0E0EE0FFF1FE458FF4FA591B4917D
:1003E0008FB7F894EC91611103C020952E2301C0C2
:1003F0002E2B2C938FBF08953FB7F894809119014D
:1004000090911A01A0911B01B0911C0126B5A89BE7
:1004100005C02F3F19F00196A11DB11D3FBFBA2F96
:10042000A92F982F8827820F911DA11DB11DBC01F6
:10043000CD0142E0660F771F881F991F4A95D1F7BB
:1004400008952FB7F894609115017091160180916D
:100450001701909118012FBF0895CF92DF92EF926C
:10046000FF921F93CF93DF93EC010E942102CA8475
:10047000DB84EC84FD84AB01BC014C195D096E0981
:100480007F0988819981092E000CAA0BBB0B841768
:100490009507A607B70718F08985813021F10E94DA
:1004A0002102CA84DB84EC84FD84AB01BC014C19BD
:1004B0005D096E097F0988819981092E000CAA0BBC
:1004C000BB0B84179507A607B70780F48985813091
:1004D00069F41E8282E089870E9421026E877F87ED
:1004E000888B998B63C08E8317E460C00E942102C1
:1004F000CE84DF84E888F988AB01BC014C195D0922
:100500006E097F098A819B81092E000CAA0BBB0B07
:1005100084179507A607B70728F18985823011F55A
:1005200011E018870E942102CE84DF84E888F988D0
:10053000AB01BC014C195D096E097F098A819B8161
:100540002C813D81821B930B092E000CAA0BBB0B47
:10055000481759076A077B0718F01F831FE426C056
:1005600012E524C00E942102CE84DF84E888F98845
:10057000AB01BC014C195D096E097F098A819B8121
:10058000092E000CAA0BBB0B84179507A607B7070B
:1005900068F48985823051F418861F8281E089874A
:1005A0000E9421026A877B878C879D87812FDF913C
:1005B000CF911F91FF90EF90DF90CF9008950E9410
:1005C000F8051F920F920FB60F9211242F933F93AD
:1005D0004F935F936F937F938F939F93AF93BF934B
:1005E000EF93FF938BE291E00E941C01FF91EF914A
:1005F000BF91AF919F918F917F916F915F914F913B
:100600003F912F910F900FBE0F901F9018951F9242
:100610000F920FB60F9211242F938F939F93EF9306
:10062000FF93E0913B01F0913C018081E091410119
:10063000F091420182FD12C09081809144018F5F50
:100640008F7320914501821751F0E0914401F0E051
:10065000E55DFE4F958F8093440101C08081FF913D
:10066000EF919F918F912F910F900FBE0F901F9040
:1006700018951F920F920FB60F9211242F933F934C
:100680008F939F93AF93BF93809115019091160123
:10069000A0911701B09118013091140123E0230FAC
:1006A0002D3720F40196A11DB11D05C026E8230FAA
:1006B0000296A11DB11D2093140180931501909302
:1006C0001601A0931701B093180180911901909120
:1006D0001A01A0911B01B0911C010196A11DB11D31
:1006E0008093190190931A01A0931B01B0931C01F0
:1006F000BF91AF919F918F913F912F910F900FBE1E
:100700000F901F901895EBE2F1E01382128288EEB1
:1007100093E0A0E0B0E084839583A683B78385E06F
:1007200091E09183808385EC90E09587848784ECC9
:1007300090E09787868780EC90E0918B808B81ECAE
:1007400090E0938B828B82EC90E0958B848B86EC8F
:1007500090E0978B868B118E128E138E148EEEEF97
:10076000F1E06CED75E07183608344E951E15383FE
:1007700042832CEB32E03583248316821782108665
:1007800081E08187ECEEF1E07183608353834283E3
:10079000358324831682178210868187EAEDF1E083
:1007A0007183608353834283358324831682178247
:1007B00010868187E8ECF1E0718360835383428384
:1007C0003583248316821782108681870895789452
:1007D00084B5826084BD84B5816084BD85B5826046
:1007E00085BD85B5816085BD80916E0081608093F7
:1007F0006E00109281008091810082608093810060
:10080000809181008160809381008091800081606F
:10081000809380008091B10084608093B1008091CA
:10082000B00081608093B00080917A0084608093F2
:100830007A0080917A00826080937A0080917A00B9
:10084000816080937A0080917A00806880937A003A
:100850001092C1008CE00E9487008DE00E9487000A
:100860008BE00E9487008AE00E948700E0913B01B4
:10087000F0913C0182E08083E0913701F0913801F2
:100880001082E0913901F0913A018FEC808310924F
:100890004301E0913F01F091400186E08083E091C7
:1008A0003D01F0913E01808180618083E0913D01B6
:1008B000F0913E01808188608083E0913D01F0915C
:1008C0003E01808180688083E0913D01F0913E018E
:1008D00080818F7D80830E94210260931E0170932E
:1008E0001F01809320019093210183E0382E92E034
:1008F000292E29E3B22E3CE3A32E4BE5942E59E595
:10090000852E6CE5762E7BE6672EE9E65E2EFCE60C
:100910004F2E80910001882309F499C08EEF91E059
:100920000E942D02809327010E942102C0901E0187
:10093000D0901F01E0902001F0902101DC01CB015B
:100940008C199D09AE09BF098D3D9540A105B105E2
:1009500008F180911D01811117C00E94210260934E
:10096000F6017093F7018093F8019093F9010E94CA
:1009700021026093FA017093FB018093FC01909334
:10098000FD0181E080931D018CEE91E00E942D021B
:10099000809328010E942102DC01CB018C199D0962
:1009A000AE09BF09893B9B40A105B10500F18091CB
:1009B0001D018130B1F40E9421026093E401709323
:1009C000E5018093E6019093E7010E942102609384
:1009D000E8017093E9018093EA019093EB01209282
:1009E0001D018AED91E00E942D02809329010E9451
:1009F0002102DC01CB018C199D09AE09BF098539A3
:100A00009141A105B105D8F180911D018230B1F469
:100A10000E9421026093D2017093D3018093D4018C
:100A20009093D5010E9421026093D6017093D70163
:100A30008093D8019093D90130921D0188EC91E008
:100A40000E942D0280932A011092000118C08EEF9F
:100A500091E00E942D02809327018CEE91E00E948C
:100A60002D02809328018AED91E00E942D0280934F
:100A7000290188EC91E00E942D0280932A01C09107
:100A80002A01D091290110912801009127010E948B
:100A9000FC01C0902201D0902301E0902401F0904D
:100AA0002501DC01CB018C199D09AE09BF098A3FE4
:100AB0009105A105B10568F40F3439F0023539F01C
:100AC000073409F066C084E754C083E752C081E769
:100AD00050C00E94FC01DC01CB018C199D09AE09BC
:100AE000BF09843F9140A105B10580F41F3441F056
:100AF000123549F0173409F04CC04092260149C024
:100B00006092260146C05092260143C00E94FC011B
:100B1000DC01CB018C199D09AE09BF098E3E9240C4
:100B2000A105B10578F4DF3439F0D23541F0D7347E
:100B300081F5709226012DC0909226012AC08092E4
:100B4000260127C00E94FC01DC01CB018C199D0904
:100B5000AE09BF09883E9340A105B10580F4CF34AA
:100B600039F0C23549F0C734A1F4A092260111C072
:100B70008BE3809326010DC0B09226010AC00E942B
:100B8000FC016093220170932301809324019093D0
:100B900025010091260160E08AE00E94B001C7E0D3
:100BA000D0E010E060E08DE00E94B001B8010C2EB2
:100BB00002C0759567950A94E2F761708CE00E9417
:100BC000B00161E08DE00E94B001219758F761E02B
:100BD0008BE00E94B00160E08BE00E94B0010E94B7
:100BE000A60197CEEE0FFF1F0590F491E02D09941A
:0E0BF00081E090E0F8940C94FD05F894FFCF9E
:100BFE0001000000003D01A600D50084010601E4BD
:040C0E0000F80000EA
:00000001FF
